:100000000C9434000C9406010C94F1000C945100F3
:100010000C9451000C9451000C9451000C9451001C
:100020000C9451000C9451000C9451000C9451000C
:100030000C9451000C9475010C9451000C945100D7
:100040000C9451000C9451000C9451000C945100EC
:100050000C9451000C9437010C9451000C945100F5
:100060000C9451000C94510011241FBECFEFD8E026
:10007000DEBFCDBF11E0A0E0B1E0E0E1F5E002C0FD
:1000800005900D92A430B107D9F721E0A4E0B1E0CA
:1000900001C01D92A031B207E1F70E9499010C94B2
:1000A00086020C94000085349105A0F189389105F1
:1000B000A0F18D3C9105A0F1823121E0920798F1E9
:1000C000863521E0920790F18A3921E0920788F184
:1000D0008E3D21E0920780F1833222E0920778F191
:1000E000873622E0920770F18B3A22E0920768F19E
:1000F0008F3E22E0920760F1843323E0920758F1AB
:10010000883723E0920750F18C3B934050F180E810
:100110009FE708958FEF90E008958EEF90E00895A7
:100120008CEF90E0089588EF90E0089580EF90E0E4
:10013000089580EE90E0089580EC90E0089580E8C6
:1001400090E0089580E891E0089580E893E00895B4
:1001500080E897E0089580E89FE0089580E89FE1B7
:10016000089580E89FE30895299A85E08A95F1F73C
:10017000000029980895CF93C82F662369F1289A23
:10018000549A559A569A579A5F985E985D985C98DB
:10019000C7FD5F9AC6FD5E9AC5FD5D9AC4FD5C9A77
:1001A0000E94B4005F985E985D985C98C3FD5F9A6A
:1001B000C2FD5E9AC1FD5D9AC0FD5C9A0E94B400CA
:1001C0005C9A5D9A5E9A5F9A8FE79CE00197F1F7DF
:1001D00000C00000CF9108952898D2CF60E00C9421
:1001E000BB001F920F920FB60F9211248F939F9313
:1001F00081E090910F01911180E080930F019F9118
:100200008F910F900FBE0F901F9018951F920F9215
:100210000FB60F9211248F93EF93FF931A9B19C07F
:10022000E1E080910F01811116C080910E01E80F6D
:10023000E0930E01E370F0E0E050FF4F8081809387
:100240000D01FF91EF918F910F900FBE0F901F90B6
:100250001895EFEFE6CF80910C01E80FE0930C01C9
:1002600080910C0187FFEDCF10920C01EACF1F9215
:100270000F920FB60F9211242F933F938F939F935A
:10028000EF93FF9380910B01811105C090910A01BA
:100290009F5F90930A0120910C0190910A01022E18
:1002A000000C330B92171306ACF0813011F410924E
:1002B0000A0190E02091780030917900FC01EE0F66
:1002C000FF1FEA5FFE4F318320838C5F9E4F21E04A
:1002D000FC012083FF91EF919F918F913F912F918E
:1002E0000F900FBE0F901F9018951F920F920FB690
:1002F0000F9211248F939F9391E080910B018111B4
:1003000090E090930B0180917C00807F80937C0033
:1003100080917C00892B80937C0080917A0080649E
:1003200080937A009F918F910F900FBE0F901F9036
:10033000189583E080930C0110920F0110920E012A
:100340008FEF80930D01209A559A219A549A559ACD
:10035000569A579A8FEF99EF0197F1F700C0000076
:100360005D9A5C9A0E94B4008FE19EE40197F1F7D8
:1003700000C000000E94B4008FEF90E00197F1F7F9
:1003800000C000000E94B4008FEF90E00197F1F7E9
:1003900000C000005C980E94B4008FEF90E00197CD
:1003A000F1F700C0000088E20E94EE0088E00E94A1
:1003B000EE0081E00E94EE0086E00E94EE008CE0FC
:1003C0000E94EE0052985A9A53985B9A22982A9A61
:1003D0008DB38C7F8DBB809169008B6080936900A9
:1003E0008CB38C7F8CBB8DB383608DBB109204016A
:1003F0001092050180917C00806480937C00809144
:100400007A00806880937A0080917A008860809377
:100410007A0080917A00876080937A0010920B01B5
:1004200080917C00807F80937C0080917C00809311
:100430007C00809181008A7F80938100809181007F
:1004400082608093810080916F00816080936F0053
:10045000789401E010E0809104018823E1F3809119
:1004600005018823C1F380910601909107010E9444
:1004700053007C01D0900D01D0E0C0E08C2F80585B
:1004800098010C2E02C0220F331F0A94E2F72E218E
:100490003F21232B89F10E94EE0061E08D2D0E9407
:1004A000BB002196CF30D10549F78091080190918A
:1004B00009010E9453007C01D0900D01D0E0C0E002
:1004C0008C2F805498010C2E02C0220F331F0A94E7
:1004D000E2F72E213F21232BA1F00E94EE0061E0E4
:1004E0008D2D0E94BB002196CF30D10549F7109287
:1004F000050110920401AFCF0E94EE0061E080E29E
:10050000CECF0E94EE0061E080E2EBCFF894FFCF07
:04051000FF3C3E7CF2
:00000001FF
